{
  "contractName": "DeliveryContract",
  "abi": [
    {
      "anonymous": false,
      "inputs": [
        {
          "indexed": true,
          "internalType": "address",
          "name": "buyer",
          "type": "address"
        },
        {
          "indexed": true,
          "internalType": "address",
          "name": "seller",
          "type": "address"
        },
        {
          "indexed": true,
          "internalType": "address",
          "name": "deliver",
          "type": "address"
        },
        {
          "indexed": false,
          "internalType": "uint256",
          "name": "orderId",
          "type": "uint256"
        }
      ],
      "name": "NewOrder",
      "type": "event"
    },
    {
      "anonymous": false,
      "inputs": [
        {
          "indexed": false,
          "internalType": "address",
          "name": "account",
          "type": "address"
        }
      ],
      "name": "Paused",
      "type": "event"
    },
    {
      "anonymous": false,
      "inputs": [
        {
          "indexed": false,
          "internalType": "address",
          "name": "account",
          "type": "address"
        }
      ],
      "name": "Unpaused",
      "type": "event"
    },
    {
      "inputs": [
        {
          "internalType": "uint256",
          "name": "",
          "type": "uint256"
        }
      ],
      "name": "disputes",
      "outputs": [
        {
          "internalType": "uint128",
          "name": "buyerReceive",
          "type": "uint128"
        },
        {
          "internalType": "int128",
          "name": "sellerBalance",
          "type": "int128"
        },
        {
          "internalType": "bool",
          "name": "buyerAcceptEscrow",
          "type": "bool"
        },
        {
          "internalType": "bool",
          "name": "sellerAcceptEscrow",
          "type": "bool"
        },
        {
          "internalType": "bool",
          "name": "deliverAcceptEscrow",
          "type": "bool"
        },
        {
          "internalType": "enum OrderStageLib.OrderStage",
          "name": "previousStage",
          "type": "uint8"
        }
      ],
      "stateMutability": "view",
      "type": "function",
      "constant": true
    },
    {
      "inputs": [],
      "name": "owner",
      "outputs": [
        {
          "internalType": "address",
          "name": "",
          "type": "address"
        }
      ],
      "stateMutability": "view",
      "type": "function",
      "constant": true
    },
    {
      "inputs": [],
      "name": "paused",
      "outputs": [
        {
          "internalType": "bool",
          "name": "",
          "type": "bool"
        }
      ],
      "stateMutability": "view",
      "type": "function",
      "constant": true
    },
    {
      "inputs": [
        {
          "internalType": "address",
          "name": "",
          "type": "address"
        }
      ],
      "name": "withdraws",
      "outputs": [
        {
          "internalType": "uint128",
          "name": "",
          "type": "uint128"
        }
      ],
      "stateMutability": "view",
      "type": "function",
      "constant": true
    },
    {
      "inputs": [
        {
          "internalType": "address[3]",
          "name": "users",
          "type": "address[3]"
        },
        {
          "internalType": "uint128",
          "name": "sellerPrice",
          "type": "uint128"
        },
        {
          "internalType": "uint128",
          "name": "deliverPrice",
          "type": "uint128"
        },
        {
          "internalType": "uint128",
          "name": "sellerDeliveryPay",
          "type": "uint128"
        },
        {
          "internalType": "uint64",
          "name": "delayEscrow",
          "type": "uint64"
        },
        {
          "internalType": "uint128[3]",
          "name": "escrowUsers",
          "type": "uint128[3]"
        }
      ],
      "name": "createOrder",
      "outputs": [
        {
          "internalType": "uint256",
          "name": "",
          "type": "uint256"
        }
      ],
      "stateMutability": "nonpayable",
      "type": "function"
    },
    {
      "inputs": [
        {
          "internalType": "uint256",
          "name": "deliveryId",
          "type": "uint256"
        },
        {
          "internalType": "uint64",
          "name": "delayEscrow",
          "type": "uint64"
        },
        {
          "internalType": "uint128[6]",
          "name": "userData",
          "type": "uint128[6]"
        }
      ],
      "name": "updateInitializeOrder",
      "outputs": [],
      "stateMutability": "nonpayable",
      "type": "function"
    },
    {
      "inputs": [
        {
          "internalType": "uint256",
          "name": "deliveryId",
          "type": "uint256"
        },
        {
          "internalType": "bytes32",
          "name": "hash",
          "type": "bytes32"
        }
      ],
      "name": "validateOrder",
      "outputs": [],
      "stateMutability": "payable",
      "type": "function",
      "payable": true
    },
    {
      "inputs": [
        {
          "internalType": "uint256",
          "name": "deliveryId",
          "type": "uint256"
        }
      ],
      "name": "initializationCancel",
      "outputs": [],
      "stateMutability": "nonpayable",
      "type": "function"
    },
    {
      "inputs": [
        {
          "internalType": "uint256",
          "name": "deliveryId",
          "type": "uint256"
        },
        {
          "internalType": "bytes",
          "name": "sellerKey",
          "type": "bytes"
        }
      ],
      "name": "takeOrder",
      "outputs": [],
      "stateMutability": "nonpayable",
      "type": "function"
    },
    {
      "inputs": [
        {
          "internalType": "uint256",
          "name": "deliveryId",
          "type": "uint256"
        },
        {
          "internalType": "bytes",
          "name": "buyerKey",
          "type": "bytes"
        }
      ],
      "name": "deliverOrder",
      "outputs": [],
      "stateMutability": "nonpayable",
      "type": "function"
    },
    {
      "inputs": [
        {
          "internalType": "uint256",
          "name": "deliveryId",
          "type": "uint256"
        }
      ],
      "name": "endOrder",
      "outputs": [],
      "stateMutability": "nonpayable",
      "type": "function"
    },
    {
      "inputs": [
        {
          "internalType": "uint256",
          "name": "deliveryId",
          "type": "uint256"
        },
        {
          "internalType": "uint128",
          "name": "buyerReceive",
          "type": "uint128"
        }
      ],
      "name": "createDispute",
      "outputs": [],
      "stateMutability": "nonpayable",
      "type": "function"
    },
    {
      "inputs": [
        {
          "internalType": "uint256",
          "name": "deliveryId",
          "type": "uint256"
        },
        {
          "internalType": "uint128",
          "name": "buyerReceive",
          "type": "uint128"
        }
      ],
      "name": "refundProposalDispute",
      "outputs": [],
      "stateMutability": "nonpayable",
      "type": "function"
    },
    {
      "inputs": [
        {
          "internalType": "uint256",
          "name": "deliveryId",
          "type": "uint256"
        }
      ],
      "name": "acceptDisputeProposal",
      "outputs": [],
      "stateMutability": "nonpayable",
      "type": "function"
    },
    {
      "inputs": [
        {
          "internalType": "uint256",
          "name": "deliveryId",
          "type": "uint256"
        },
        {
          "internalType": "int128",
          "name": "sellerBalance",
          "type": "int128"
        }
      ],
      "name": "costDisputeProposal",
      "outputs": [],
      "stateMutability": "payable",
      "type": "function",
      "payable": true
    },
    {
      "inputs": [
        {
          "internalType": "uint256",
          "name": "deliveryId",
          "type": "uint256"
        }
      ],
      "name": "acceptCostProposal",
      "outputs": [],
      "stateMutability": "payable",
      "type": "function",
      "payable": true
    },
    {
      "inputs": [
        {
          "internalType": "uint256",
          "name": "deliveryId",
          "type": "uint256"
        }
      ],
      "name": "revertDispute",
      "outputs": [],
      "stateMutability": "nonpayable",
      "type": "function"
    },
    {
      "inputs": [
        {
          "internalType": "uint256",
          "name": "deliveryId",
          "type": "uint256"
        }
      ],
      "name": "getOrder",
      "outputs": [
        {
          "internalType": "address",
          "name": "buyer",
          "type": "address"
        },
        {
          "internalType": "address",
          "name": "seller",
          "type": "address"
        },
        {
          "internalType": "address",
          "name": "deliver",
          "type": "address"
        },
        {
          "internalType": "uint128",
          "name": "deliverPrice",
          "type": "uint128"
        },
        {
          "internalType": "uint128",
          "name": "sellerPrice",
          "type": "uint128"
        },
        {
          "internalType": "uint128",
          "name": "sellerDeliveryPay",
          "type": "uint128"
        },
        {
          "internalType": "enum OrderStageLib.OrderStage",
          "name": "orderStage",
          "type": "uint8"
        },
        {
          "internalType": "uint64",
          "name": "startDate",
          "type": "uint64"
        },
        {
          "internalType": "bool",
          "name": "buyerValidation",
          "type": "bool"
        },
        {
          "internalType": "bool",
          "name": "sellerValidation",
          "type": "bool"
        },
        {
          "internalType": "bool",
          "name": "deliverValidation",
          "type": "bool"
        },
        {
          "internalType": "bytes32",
          "name": "sellerHash",
          "type": "bytes32"
        },
        {
          "internalType": "bytes32",
          "name": "buyerHash",
          "type": "bytes32"
        }
      ],
      "stateMutability": "view",
      "type": "function",
      "constant": true
    },
    {
      "inputs": [
        {
          "internalType": "uint256",
          "name": "deliveryId",
          "type": "uint256"
        }
      ],
      "name": "getEscrow",
      "outputs": [
        {
          "internalType": "uint64",
          "name": "delayEscrow",
          "type": "uint64"
        },
        {
          "internalType": "uint128",
          "name": "escrowBuyer",
          "type": "uint128"
        },
        {
          "internalType": "uint128",
          "name": "escrowSeller",
          "type": "uint128"
        },
        {
          "internalType": "uint128",
          "name": "escrowDeliver",
          "type": "uint128"
        }
      ],
      "stateMutability": "view",
      "type": "function",
      "constant": true
    },
    {
      "inputs": [
        {
          "internalType": "uint256",
          "name": "deliveryId",
          "type": "uint256"
        }
      ],
      "name": "getDispute",
      "outputs": [
        {
          "internalType": "uint128",
          "name": "buyerReceive",
          "type": "uint128"
        },
        {
          "internalType": "int128",
          "name": "sellerBalance",
          "type": "int128"
        },
        {
          "internalType": "bool",
          "name": "buyerAcceptEscrow",
          "type": "bool"
        },
        {
          "internalType": "bool",
          "name": "sellerAcceptEscrow",
          "type": "bool"
        },
        {
          "internalType": "bool",
          "name": "deliverAcceptEscrow",
          "type": "bool"
        },
        {
          "internalType": "enum OrderStageLib.OrderStage",
          "name": "previousStage",
          "type": "uint8"
        }
      ],
      "stateMutability": "view",
      "type": "function",
      "constant": true
    },
    {
      "inputs": [],
      "name": "withdrawBalance",
      "outputs": [],
      "stateMutability": "nonpayable",
      "type": "function"
    },
    {
      "inputs": [
        {
          "internalType": "address",
          "name": "newOwner",
          "type": "address"
        }
      ],
      "name": "updateOwner",
      "outputs": [],
      "stateMutability": "nonpayable",
      "type": "function"
    },
    {
      "inputs": [],
      "name": "pause",
      "outputs": [],
      "stateMutability": "nonpayable",
      "type": "function"
    },
    {
      "inputs": [],
      "name": "unpause",
      "outputs": [],
      "stateMutability": "nonpayable",
      "type": "function"
    }
  ],
  "bytecode": "0x6080604052600580546001600160a01b031916331790556000805460ff1916905560018055612081806100336000396000f3fe60806040526004361061011a5760003560e01c80625fa0a91461011f5780633678142a146101a35780633cea4156146101dc5780633f4ba83a1461021b57806348179ee5146102305780634a3381261461027f578063542e5c0c146102a9578063564a565d146102e25780635c975abb1461036b5780635fd8c7101461039457806374c04fed146103a9578063771c37b1146103cc5780637d19e596146103f65780638456cb591461045b578063880cdc31146104705780638cf2f673146104a35780638da5cb5b146104cd5780639b47ca0c146104fe578063aa54f63414610528578063b61ea5741461054e578063ca6bb9c8146105ba578063d09ef2411461063c578063e3a96cbd14610758578063eed49f2f14610782575b600080fd5b34801561012b57600080fd5b506101a16004803603604081101561014257600080fd5b81359190810190604081016020820135600160201b81111561016357600080fd5b82018360208201111561017557600080fd5b803590602001918460018302840111600160201b8311171561019657600080fd5b50909250905061079f565b005b3480156101af57600080fd5b506101a1600480360360408110156101c657600080fd5b50803590602001356001600160801b03166108fb565b3480156101e857600080fd5b506101a1600480360361010081101561020057600080fd5b508035906001600160401b0360208201351690604001610a3c565b34801561022757600080fd5b506101a1610c4f565b34801561023c57600080fd5b506102636004803603602081101561025357600080fd5b50356001600160a01b0316610cf7565b604080516001600160801b039092168252519081900360200190f35b34801561028b57600080fd5b506101a1600480360360208110156102a257600080fd5b5035610d12565b3480156102b557600080fd5b506101a1600480360360408110156102cc57600080fd5b50803590602001356001600160801b0316610e41565b3480156102ee57600080fd5b5061030c6004803603602081101561030557600080fd5b5035610f62565b604080516001600160801b0388168152600f87810b900b6020820152851515918101919091528315156060820152821515608082015260a0810182600781111561035257fe5b60ff168152602001965050505050505060405180910390f35b34801561037757600080fd5b50610380610fb0565b604080519115158252519081900360200190f35b3480156103a057600080fd5b506101a1610fb9565b6101a1600480360360408110156103bf57600080fd5b508035906020013561110b565b3480156103d857600080fd5b506101a1600480360360208110156103ef57600080fd5b5035611223565b34801561040257600080fd5b506104206004803603602081101561041957600080fd5b503561133c565b604080516001600160401b0390951685526001600160801b039384166020860152918316848301529091166060830152519081900360800190f35b34801561046757600080fd5b506101a16113a2565b34801561047c57600080fd5b506101a16004803603602081101561049357600080fd5b50356001600160a01b0316611444565b3480156104af57600080fd5b506101a1600480360360208110156104c657600080fd5b50356115a7565b3480156104d957600080fd5b506104e26116cc565b604080516001600160a01b039092168252519081900360200190f35b34801561050a57600080fd5b506101a16004803603602081101561052157600080fd5b50356116db565b6101a16004803603604081101561053e57600080fd5b5080359060200135600f0b6117eb565b34801561055a57600080fd5b506105a8600480360361014081101561057257600080fd5b506001600160801b036060820135811690608083013581169060a0840135166001600160401b0360c08501351660e08501611912565b60408051918252519081900360200190f35b3480156105c657600080fd5b506101a1600480360360408110156105dd57600080fd5b81359190810190604081016020820135600160201b8111156105fe57600080fd5b82018360208201111561061057600080fd5b803590602001918460018302840111600160201b8311171561063157600080fd5b509092509050611b55565b34801561064857600080fd5b506106666004803603602081101561065f57600080fd5b5035611c12565b604051808e6001600160a01b03166001600160a01b031681526020018d6001600160a01b03166001600160a01b031681526020018c6001600160a01b03166001600160a01b031681526020018b6001600160801b03166001600160801b031681526020018a6001600160801b03166001600160801b03168152602001896001600160801b03166001600160801b0316815260200188600781111561070657fe5b60ff1681526001600160401b039097166020880152509315156040808701919091529215156060860152901515608085015260a084015260c0830191909152519081900360e001975095505050505050f35b34801561076457600080fd5b5061030c6004803603602081101561077b57600080fd5b5035611d91565b6101a16004803603602081101561079857600080fd5b5035611de3565b6107a7610fb0565b156107e7576040805162461bcd60e51b8152602060048201526010602482015260008051602061202c833981519152604482015290519081900360640190fd5b6002600154141561082d576040805162461bcd60e51b815260206004820152601f6024820152600080516020611fec833981519152604482015290519081900360640190fd5b600260018190555073__OrderLib______________________________63d9e574ab6002858154811061085c57fe5b90600052602060002090600902018585856040518563ffffffff1660e01b815260040180858152602001848152602001806020018281038252848482818152602001925080828437600081840152601f19601f8201169050808301925050509550505050505060006040518083038186803b1580156108da57600080fd5b505af41580156108ee573d6000803e3d6000fd5b5050505050506001805550565b610903610fb0565b15610943576040805162461bcd60e51b8152602060048201526010602482015260008051602061202c833981519152604482015290519081900360640190fd5b60026001541415610989576040805162461bcd60e51b815260206004820152601f6024820152600080516020611fec833981519152604482015290519081900360640190fd5b600260018190555073__DisputeLib____________________________6340ee357a600284815481106109b857fe5b600091825260208220604080516001600160e01b031960e087901b1681526009909302909101600483015260036024830152604482018790526001600160801b03861660648301525160848083019392829003018186803b158015610a1c57600080fd5b505af4158015610a30573d6000803e3d6000fd5b50506001805550505050565b610a44610fb0565b15610a84576040805162461bcd60e51b8152602060048201526010602482015260008051602061202c833981519152604482015290519081900360640190fd5b60026001541415610aca576040805162461bcd60e51b815260206004820152601f6024820152600080516020611fec833981519152604482015290519081900360640190fd5b600260015581620151806001600160401b0382161015610b1f576040805162461bcd60e51b8152602060048201819052602482015260008051602061200c833981519152604482015290519081900360640190fd5b6001600160801b03604083013581169060208401351680821115610b745760405162461bcd60e51b815260040180806020018281038252602d815260200180611fbf602d913960400191505060405180910390fd5b73__OrderLib______________________________6398de0ce260028881548110610b9b57fe5b906000526020600020906009020160048989896040518663ffffffff1660e01b815260040180868152602001858152602001848152602001836001600160401b03166001600160401b0316815260200182600660200280828437600081840152601f19601f8201169050808301925050509550505050505060006040518083038186803b158015610c2b57600080fd5b505af4158015610c3f573d6000803e3d6000fd5b5050505050506001805550505050565b6005546001600160a01b03163314610c9e576040805162461bcd60e51b815260206004820152600d60248201526c2737ba103a34329037bbb732b960991b604482015290519081900360640190fd5b60026001541415610ce4576040805162461bcd60e51b815260206004820152601f6024820152600080516020611fec833981519152604482015290519081900360640190fd5b6002600155610cf1611ea0565b60018055565b6004602052600090815260409020546001600160801b031681565b610d1a610fb0565b15610d5a576040805162461bcd60e51b8152602060048201526010602482015260008051602061202c833981519152604482015290519081900360640190fd5b60026001541415610da0576040805162461bcd60e51b815260206004820152601f6024820152600080516020611fec833981519152604482015290519081900360640190fd5b600260018190555073__OrderLib______________________________6386e39a7f60028381548110610dcf57fe5b90600052602060002090600902016004846040518463ffffffff1660e01b815260040180848152602001838152602001828152602001935050505060006040518083038186803b158015610e2257600080fd5b505af4158015610e36573d6000803e3d6000fd5b505050505060018055565b610e49610fb0565b15610e89576040805162461bcd60e51b8152602060048201526010602482015260008051602061202c833981519152604482015290519081900360640190fd5b60026001541415610ecf576040805162461bcd60e51b815260206004820152601f6024820152600080516020611fec833981519152604482015290519081900360640190fd5b600260018190555073__DisputeLib____________________________631447b6cc60028481548110610efe57fe5b600091825260208220604080516001600160e01b031960e087901b16815260099093029091016004830152600360248301526001600160801b0386166044830152606482018790525160848083019392829003018186803b158015610a1c57600080fd5b600360205260009081526040902080546001909101546001600160801b03821691600160801b9004600f0b9060ff808216916101008104821691620100008204811691630100000090041686565b60005460ff1690565b610fc1610fb0565b15611001576040805162461bcd60e51b8152602060048201526010602482015260008051602061202c833981519152604482015290519081900360640190fd5b60026001541415611047576040805162461bcd60e51b815260206004820152601f6024820152600080516020611fec833981519152604482015290519081900360640190fd5b60026001553360008181526004602052604080822080546001600160801b0319811690915590516001600160801b03909116929083908381818185875af1925050503d80600081146110b5576040519150601f19603f3d011682016040523d82523d6000602084013e6110ba565b606091505b5050905080611103576040805162461bcd60e51b815260206004820152601060248201526f2a3930b739b332b9103330b4b632b21760811b604482015290519081900360640190fd5b505060018055565b611113610fb0565b15611153576040805162461bcd60e51b8152602060048201526010602482015260008051602061202c833981519152604482015290519081900360640190fd5b60026001541415611199576040805162461bcd60e51b815260206004820152601f6024820152600080516020611fec833981519152604482015290519081900360640190fd5b600260018190555073__OrderLib______________________________63f9e193a7600284815481106111c857fe5b9060005260206000209060090201600485856040518563ffffffff1660e01b81526004018085815260200184815260200183815260200182815260200194505050505060006040518083038186803b158015610a1c57600080fd5b61122b610fb0565b1561126b576040805162461bcd60e51b8152602060048201526010602482015260008051602061202c833981519152604482015290519081900360640190fd5b600260015414156112b1576040805162461bcd60e51b815260206004820152601f6024820152600080516020611fec833981519152604482015290519081900360640190fd5b600260018190555073__DisputeLib____________________________63d178812b600283815481106112e057fe5b906000526020600020906009020160036004856040518563ffffffff1660e01b81526004018085815260200184815260200183815260200182815260200194505050505060006040518083038186803b158015610e2257600080fd5b60008060008060006002868154811061135157fe5b6000918252602090912060099091020160078101546008909101546001600160401b03821698600160401b9092046001600160801b0390811698508082169750600160801b90910416945092505050565b6005546001600160a01b031633146113f1576040805162461bcd60e51b815260206004820152600d60248201526c2737ba103a34329037bbb732b960991b604482015290519081900360640190fd5b60026001541415611437576040805162461bcd60e51b815260206004820152601f6024820152600080516020611fec833981519152604482015290519081900360640190fd5b6002600155610cf1611f40565b61144c610fb0565b1561148c576040805162461bcd60e51b8152602060048201526010602482015260008051602061202c833981519152604482015290519081900360640190fd5b6005546001600160a01b031633146114db576040805162461bcd60e51b815260206004820152600d60248201526c2737ba103a34329037bbb732b960991b604482015290519081900360640190fd5b60026001541415611521576040805162461bcd60e51b815260206004820152601f6024820152600080516020611fec833981519152604482015290519081900360640190fd5b60026001556001600160a01b038116611581576040805162461bcd60e51b815260206004820152601e60248201527f4e65772061646472657373206e65656420746f20626520646566696e65640000604482015290519081900360640190fd5b600580546001600160a01b0319166001600160a01b039290921691909117905560018055565b6115af610fb0565b156115ef576040805162461bcd60e51b8152602060048201526010602482015260008051602061202c833981519152604482015290519081900360640190fd5b60026001541415611635576040805162461bcd60e51b815260206004820152601f6024820152600080516020611fec833981519152604482015290519081900360640190fd5b600260018190555073__OrderLib______________________________63e2eab7a36002838154811061166457fe5b600091825260208220600554604080516001600160e01b031960e088901b168152600990940290920160048481019190915260248401526001600160a01b03166044830152606482018690525160848083019392829003018186803b158015610e2257600080fd5b6005546001600160a01b031681565b6116e3610fb0565b15611723576040805162461bcd60e51b8152602060048201526010602482015260008051602061202c833981519152604482015290519081900360640190fd5b60026001541415611769576040805162461bcd60e51b815260206004820152601f6024820152600080516020611fec833981519152604482015290519081900360640190fd5b600260018190555073__DisputeLib____________________________636d14228d6002838154811061179857fe5b90600052602060002090600902016003846040518463ffffffff1660e01b815260040180848152602001838152602001828152602001935050505060006040518083038186803b158015610e2257600080fd5b6117f3610fb0565b15611833576040805162461bcd60e51b8152602060048201526010602482015260008051602061202c833981519152604482015290519081900360640190fd5b60026001541415611879576040805162461bcd60e51b815260206004820152601f6024820152600080516020611fec833981519152604482015290519081900360640190fd5b600260018190555073__DisputeLib____________________________638297384e600284815481106118a857fe5b90600052602060002090600902016003600486866040518663ffffffff1660e01b81526004018086815260200185815260200184815260200183815260200182600f0b600f0b81526020019550505050505060006040518083038186803b158015610a1c57600080fd5b600061191c610fb0565b1561195c576040805162461bcd60e51b8152602060048201526010602482015260008051602061202c833981519152604482015290519081900360640190fd5b600260015414156119a2576040805162461bcd60e51b815260206004820152601f6024820152600080516020611fec833981519152604482015290519081900360640190fd5b600260015582620151806001600160401b03821610156119f7576040805162461bcd60e51b8152602060048201819052602482015260008051602061200c833981519152604482015290519081900360640190fd5b8486806001600160801b0316826001600160801b03161115611a4a5760405162461bcd60e51b815260040180806020018281038252602d815260200180611fbf602d913960400191505060405180910390fd5b73__OrderLib______________________________639b340d1e60028c8c8c8c8c8c6040518863ffffffff1660e01b815260040180888152602001876003602002808284376000838201526001600160801b03808a16601f909201601f191690930190815287831660208201529186166040830152506001600160401b038416606080830191909152608090910190839080828437600081840152601f19601f82011690508083019250505097505050505050505060206040518083038186803b158015611b1757600080fd5b505af4158015611b2b573d6000803e3d6000fd5b505050506040513d6020811015611b4157600080fd5b5051600180559a9950505050505050505050565b611b5d610fb0565b15611b9d576040805162461bcd60e51b8152602060048201526010602482015260008051602061202c833981519152604482015290519081900360640190fd5b60026001541415611be3576040805162461bcd60e51b815260206004820152601f6024820152600080516020611fec833981519152604482015290519081900360640190fd5b600260018190555073__OrderLib______________________________634c8a6c576002858154811061085c57fe5b60008060008060008060008060008060008060008060028f81548110611c3457fe5b906000526020600020906009020190508060000160000160009054906101000a90046001600160a01b03169d508060000160010160009054906101000a90046001600160a01b03169c508060000160020160009054906101000a90046001600160a01b03169b508060000160030160009054906101000a90046001600160801b03169a508060000160030160109054906101000a90046001600160801b031699508060000160040160009054906101000a90046001600160801b031698508060000160040160109054906101000a900460ff1697508060000160040160119054906101000a90046001600160401b031696508060000160040160199054906101000a900460ff16955080600001600401601a9054906101000a900460ff16945080600001600401601b9054906101000a900460ff16935080600001600501549250806000016006015491505091939597999b9d90929496989a9c50565b600090815260036020526040902080546001909101546001600160801b03821692600160801b909204600f0b9160ff808316926101008104821692620100008204831692630100000090920490911690565b611deb610fb0565b15611e2b576040805162461bcd60e51b8152602060048201526010602482015260008051602061202c833981519152604482015290519081900360640190fd5b60026001541415611e71576040805162461bcd60e51b815260206004820152601f6024820152600080516020611fec833981519152604482015290519081900360640190fd5b600260018190555073__DisputeLib____________________________63f7cfa915600283815481106112e057fe5b611ea8610fb0565b611ef0576040805162461bcd60e51b815260206004820152601460248201527314185d5cd8589b194e881b9bdd081c185d5cd95960621b604482015290519081900360640190fd5b6000805460ff191690557f5db9ee0a495bf2e6ff9c91a7834c1ba4fdd244a5e8aa4e537bd38aeae4b073aa611f23611fba565b604080516001600160a01b039092168252519081900360200190a1565b611f48610fb0565b15611f88576040805162461bcd60e51b8152602060048201526010602482015260008051602061202c833981519152604482015290519081900360640190fd5b6000805460ff191660011790557f62e78cea01bee320cd4e420270b5ea74000d11b0c9f74754ebdbfc544b05a258611f235b339056fe53656c6c65722063616e277420706179206d6f7265207468616e207468652064656c69766572792070726963655265656e7472616e637947756172643a207265656e7472616e742063616c6c0044656c61792073686f756c64206265206174206c65617374206f6e65206461795061757361626c653a2070617573656400000000000000000000000000000000a2646970667358221220567e9d82cde94ae3a102ee90dc00acdda990d51129bc2fd3e773817b64dfdeca64736f6c63430006070033",
  "immutableReferences": {},
  "source": "pragma solidity 0.6.7;\n\nimport \"./Library/DisputeLib.sol\";\nimport \"./Library/OrderLib.sol\";\nimport \"./Library/OrderStageLib.sol\";\nimport \"./Library/EscrowLib.sol\";\nimport \"./Library/DeliveryLib.sol\";\nimport \"./Library/SafeMath.sol\";\nimport \"@openzeppelin/contracts/utils/Pausable.sol\";\nimport \"@openzeppelin/contracts/utils/ReentrancyGuard.sol\";\n\ncontract DeliveryContract is Pausable, ReentrancyGuard {\n    using SafeMath for uint128;\n\n    DeliveryLib.Delivery[] deliveries;\n    mapping(uint => DisputeLib.Dispute) public disputes;\n    mapping(address => uint128) public withdraws;\n    address public owner = msg.sender;\n\n    event NewOrder(address indexed buyer, address indexed seller, address indexed deliver, uint256 orderId);\n\n    function createOrder(\n        address[3] calldata users,\n        uint128 sellerPrice,\n        uint128 deliverPrice,\n        uint128 sellerDeliveryPay,\n        uint64 delayEscrow,\n        uint128[3] calldata escrowUsers\n    )\n    external\n    whenNotPaused\n    nonReentrant\n    checkDelayMinimum(delayEscrow)\n    checkSellerPayDelivery(sellerDeliveryPay, deliverPrice)\n    returns (uint)\n    {\n        return OrderLib.createOrder(deliveries, users, sellerPrice, deliverPrice, sellerDeliveryPay, delayEscrow, escrowUsers);\n    }\n\n    /**\n    * @param userData : 0 = sellerPrice,\n    *                   1 = deliverPrice,\n    *                   2 = sellerDeliveryPay,\n    *                   3 = escrowBuyer,\n    *                   4 = escrowSeller,\n    *                   5 = escrowDeliver,\n    *\n    */\n    function updateInitializeOrder(\n        uint deliveryId,\n        uint64 delayEscrow,\n        uint128[6] calldata userData)\n    external\n    whenNotPaused\n    nonReentrant\n    checkDelayMinimum(delayEscrow)\n    checkSellerPayDelivery(userData[2], userData[1])\n    {\n        return OrderLib.updateInitializeOrder(deliveries[deliveryId], withdraws, deliveryId, delayEscrow, userData);\n    }\n\n    function validateOrder(uint deliveryId, bytes32 hash)\n    payable\n    external\n    whenNotPaused\n    nonReentrant\n    {\n        return OrderLib.validateOrder(deliveries[deliveryId], withdraws, deliveryId, hash);\n    }\n\n    function initializationCancel(uint deliveryId)\n    external\n    whenNotPaused\n    nonReentrant\n    {\n        return OrderLib.initializationCancel(deliveries[deliveryId], withdraws, deliveryId);\n    }\n\n    function takeOrder(uint deliveryId, bytes calldata sellerKey)\n    external\n    whenNotPaused\n    nonReentrant\n    {\n        return OrderLib.takeOrder(deliveries[deliveryId], deliveryId, sellerKey);\n    }\n\n    function deliverOrder(uint deliveryId, bytes calldata buyerKey)\n    external\n    whenNotPaused\n    nonReentrant\n    {\n        return OrderLib.deliverOrder(deliveries[deliveryId], deliveryId, buyerKey);\n    }\n\n    function endOrder(uint deliveryId)\n    external\n    whenNotPaused\n    nonReentrant\n    {\n        return OrderLib.endOrder(deliveries[deliveryId], withdraws, owner, deliveryId);\n    }\n\n    function createDispute(uint deliveryId, uint128 buyerReceive)\n    external\n    whenNotPaused\n    nonReentrant\n    {\n        DisputeLib.createDispute(deliveries[deliveryId], disputes, buyerReceive, deliveryId);\n    }\n\n    function refundProposalDispute(uint deliveryId, uint128 buyerReceive)\n    external\n    whenNotPaused\n    nonReentrant\n    {\n        DisputeLib.refundProposalDispute(deliveries[deliveryId], disputes, deliveryId, buyerReceive);\n    }\n\n    function acceptDisputeProposal(uint deliveryId)\n    external\n    whenNotPaused\n    nonReentrant\n    {\n        DisputeLib.acceptDisputeProposal(deliveries[deliveryId], disputes, withdraws, deliveryId);\n    }\n\n    function costDisputeProposal(uint deliveryId, int128 sellerBalance)\n    payable\n    external\n    whenNotPaused\n    nonReentrant\n    {\n        DisputeLib.costDisputeProposal(deliveries[deliveryId], disputes, withdraws, deliveryId, sellerBalance);\n    }\n\n    function acceptCostProposal(uint deliveryId)\n    payable\n    external\n    whenNotPaused\n    nonReentrant\n    {\n        DisputeLib.acceptCostProposal(deliveries[deliveryId], disputes, withdraws, deliveryId);\n    }\n\n    function revertDispute(uint deliveryId)\n    external\n    whenNotPaused\n    nonReentrant\n    {\n        DisputeLib.revertDispute(deliveries[deliveryId], disputes, deliveryId);\n    }\n\n    function getOrder(uint deliveryId)\n    external\n    view\n    returns (\n        address buyer,\n        address seller,\n        address deliver,\n        uint128 deliverPrice,\n        uint128 sellerPrice,\n        uint128 sellerDeliveryPay,\n        OrderStageLib.OrderStage orderStage,\n        uint64 startDate,\n        bool buyerValidation,\n        bool sellerValidation,\n        bool deliverValidation,\n        bytes32 sellerHash,\n        bytes32 buyerHash\n    ) {\n        DeliveryLib.Delivery storage delivery = deliveries[deliveryId];\n\n        buyer = delivery.order.buyer;\n        seller = delivery.order.seller;\n        deliver = delivery.order.deliver;\n        deliverPrice = delivery.order.deliverPrice;\n        sellerPrice = delivery.order.sellerPrice;\n        sellerDeliveryPay = delivery.order.sellerDeliveryPay;\n        orderStage = delivery.order.orderStage;\n        startDate = delivery.order.startDate;\n        buyerValidation = delivery.order.buyerValidation;\n        sellerValidation = delivery.order.sellerValidation;\n        deliverValidation = delivery.order.deliverValidation;\n        sellerHash = delivery.order.sellerHash;\n        buyerHash = delivery.order.buyerHash;\n    }\n\n    function getEscrow(uint deliveryId)\n    external\n    view\n    returns (\n        uint64 delayEscrow,\n        uint128 escrowBuyer,\n        uint128 escrowSeller,\n        uint128 escrowDeliver\n    ) {\n        DeliveryLib.Delivery storage delivery = deliveries[deliveryId];\n\n        delayEscrow = delivery.escrow.delayEscrow;\n        escrowBuyer = delivery.escrow.escrowBuyer;\n        escrowSeller = delivery.escrow.escrowSeller;\n        escrowDeliver = delivery.escrow.escrowDeliver;\n    }\n\n    function getDispute(uint deliveryId)\n    external\n    view\n    returns (\n        uint128 buyerReceive,\n        int128 sellerBalance,\n        bool buyerAcceptEscrow,\n        bool sellerAcceptEscrow,\n        bool deliverAcceptEscrow,\n        OrderStageLib.OrderStage previousStage\n    ) {\n        DisputeLib.Dispute storage dispute = disputes[deliveryId];\n\n        buyerReceive = dispute.buyerReceive;\n        sellerBalance = dispute.sellerBalance;\n        buyerAcceptEscrow = dispute.buyerAcceptEscrow;\n        sellerAcceptEscrow = dispute.sellerAcceptEscrow;\n        deliverAcceptEscrow = dispute.deliverAcceptEscrow;\n        previousStage = dispute.previousStage;\n    }\n\n    function withdrawBalance()\n    external\n    whenNotPaused\n    nonReentrant\n    {\n        uint balance = withdraws[msg.sender];\n        withdraws[msg.sender] = 0;\n        (bool success,) = msg.sender.call.value(balance)(\"\");\n        require(success, \"Transfer failed.\");\n    }\n\n    function updateOwner(address newOwner)\n    external\n    whenNotPaused\n    isOwner\n    nonReentrant\n    {\n        require(newOwner != address(0), \"New address need to be defined\");\n        owner = newOwner;\n    }\n\n    function pause()\n    external\n    isOwner\n    nonReentrant\n    {\n        _pause();\n    }\n\n    function unpause()\n    external\n    isOwner\n    nonReentrant\n    {\n        _unpause();\n    }\n\n    modifier checkDelayMinimum(uint64 delay){\n        require(delay >= 1 days, \"Delay should be at least one day\");\n        _;\n    }\n\n    modifier checkSellerPayDelivery(uint128 sellerDeliveryPay, uint128 deliverPrice){\n        require(sellerDeliveryPay <= deliverPrice, \"Seller can't pay more than the delivery price\");\n        _;\n    }\n\n    modifier isOwner(){\n        require(msg.sender == owner, \"Not the owner\");\n        _;\n    }\n}\n",
  "sourcePath": "/home/jeanjack/BlockDelivery/contracts/contracts/DeliveryContract.sol",
  "compiler": {
    "name": "solc",
    "version": "0.6.7+commit.b8d736ae.Emscripten.clang"
  },
  "schemaVersion": "3.3.4",
  "updatedAt": "2021-09-19T22:45:01.014Z",
  "networkType": "ethereum",
  "devdoc": {
    "methods": {
      "paused()": {
        "details": "Returns true if the contract is paused, and false otherwise."
      },
      "updateInitializeOrder(uint256,uint64,uint128[6])": {
        "params": {
          "userData": ": 0 = sellerPrice,                  1 = deliverPrice,                  2 = sellerDeliveryPay,                  3 = escrowBuyer,                  4 = escrowSeller,                  5 = escrowDeliver,    "
        }
      }
    }
  },
  "userdoc": {
    "methods": {}
  }
}